S0150000656D62656464656447616D65732E73726563F8
S11300000030002031010000C1000000C5000000E4
S1130010C1000000C1000000C1000000C1000000D8
S1130020C1000000C1000000C1000000C1000000C8
S1130030C1000000C1000000C1000000E917000079
S1130040F5170000C1000000C1000000C10000005D
S1130050C1000000C1000000C1000000C100000098
S11300605D180000C1000000C1000000C1000000D4
S113007021180000C1000000C1000000C100000000
S1130080C1000000C1000000C1000000C100000068
S1130090C1000000C1000000C1000000C100000058
S11300A0C1000000C1000000C1000000C100000048
S11300B0C1000000C1000000C1000000C100000038
S11300C0FEE7C046FEE7C04680221249124B920169
S11300D0585870B502435A508121104A10484900BB
S11300E0516042690139FF398A4342610269114210
S11300F008D15526AA2502240A4A9E509D5001691A
S11301000C42FAD00449034A07488B5803408B50E9
S113011070BDC046381000000070044000D0044098
S113012000F10F4004110000FFDFFFFFC046C0468E
S1130130FFF7CAFF374A384B38499A608022384B58
S11301409200585802435A50364A374999501A680F
S113015036490A4080211A60354A490298580143B9
S113016099509958334808408021490401439950D3
S1130170314B3248996C014099640021DA6C024099
S1130180DA642F4B2F4A197024235370743313707D
S1130190D078793B0340D37001231371517110312E
S11301A093791942FCD10C21264A93790B40082BF0
S11301B0FBD1402138335371224A93791942FCD040
S11301C0182313700C221F498B7913400C2BFBD17D
S11301D01D4A1E4B9A421AD2013B991A00238908E0
S11301E001311B488900C458D45004338B42FAD1DE
S11301F0D318184A934208D80321D21A8A43191DE6
S11302005218002102C39342FCD100F0B3F9130049
S1130210EFE7C0460000000000ED00E038100000E9
S1130220007004404410000000000110FFFFF3FFC1
S113023004100000FFFFFFFC00900440FFF8FFFEE5
S1130240005006400040064000F0FF1F04F0FF1F6E
S11302505C1B000090F0FF1F000000000000000085
S1130260000000000000000000000000000000008A
S1130270000000000000000000000000000000007A
S1130280000000000000000000000000000000006A
S1130290000000000000000000000000000000005A
S11302A0000000000000000000000000000000004A
S11302B0000000000000000000000000000000003A
S11302C0000000000000000000000000000000002A
S11302D0000000000000000000000000000000001A
S11302E0000000000000000000000000000000000A
S11302F000000000000000000000000000000000FA
S113030000000000000000000000000000000000E9
S113031000000000000000000000000000000000D9
S113032000000000000000000000000000000000C9
S113033000000000000000000000000000000000B9
S113034000000000000000000000000000000000A9
S11303500000000000000000000000000000000099
S11303600000000000000000000000000000000089
S11303700000000000000000000000000000000079
S11303800000000000000000000000000000000069
S11303900000000000000000000000000000000059
S11303A00000000000000000000000000000000049
S11303B00000000000000000000000000000000039
S11303C00000000000000000000000000000000029
S11303D00000000000000000000000000000000019
S11303E00000000000000000000000000000000009
S11303F000000000000000000000000000000000F9
S1130400FFFFFFFFFFFFFFFFFFFFFFFF7EF7FFFF81
S1130410F0B5D6464F4646460278C0B5002A24D0E9
S1130420144B3F2598461978134B144C1E7800231F
S11304309946134B9C4680235B429A464B1C0130E1
S11304402B40B34209D067467A545146E2780A43B6
S1130450190001239946D2B2E2700278002AEDD144
S11304604B46002B01D043461970E0BCBA46B14656
S1130470A846F0BD8CF0FF1F8DF0FF1F00A00640C2
S11304804CF0FF1F0023034A13619361024A9361F6
S11304907047C04600A00340008003403F22F0B5EF
S11304A016000F490F4C08782578431C1E40AE42B5
S11304B015D00A2480230C4F0E703C540B4C5B4225
S11304C0E0781843C0B2E070701C0240AA4206D023
S11304D00D200A70B855E2781343DBB2E370F0BD27
S11304E08CF0FF1F8DF0FF1F4CF0FF1F00A0064093
S11304F05722F0B59446C646030900B59C449F288C
S113050002D8273A94469C443F252F00154B164A9F
S11305101C7811789846631C0A001F408F420CD047
S11305206646124A1655424680241770104AD378FC
S113053023433C00D3707A1C2A400F231840030045
S11305405733092800D8273B8A4208D007490B555E
S1130550434680211A70064AD3780B43D37080BC7B
S1130560B846F0BD8CF0FF1F8DF0FF1F4CF0FF1F4D
S113057000A00640F0B5DE4657464E464546E0B577
S113058089B072B60726D74BD74A1E605A608822B4
S11305900A218020D54B52019950D54AC000995860
S11305A08146014380209950995840010143995054
S11305B08021C027CF4DC9026869CF4C0143CF4881
S11305C06961816CBF0021403943816480216E6977
S11305D0090331436961C16C250021400224394378
S11305E04F46C164C6480726416921434161C54855
S11305F0063441682940394341608020C249C0041F
S11306005D5800272843585080205D5840042843F3
S11306105850BE4DBE48B84606602E601D36C660B2
S113062046616E61DA368660AE6007618761AF61EC
S1130630066801372643066080262868B6002043F2
S113064028609858B34D30439850286DAA4CFF3712
S11306502040BB463843B04F2865BC467869AF4F4D
S113066020253840674678619858AD4F2843985004
S1130670AC488024076007683D00254305600225D7
S1130680822758587F0128435850D859BC465F46A2
S113069038436746D85186277F00BC46A24FA348FB
S11306A0BA4667465546C551A14FBC465F466546A6
S11306B0C551A04D0437C55106250437C5519E4880
S11306C0513F077067469D48F935076003279C48EA
S11306D00780C0279B48BF00C7590094AF432743F6
S11306E0C024A4000751C027FE3D7F00C55105600A
S11306F05F58954CBC4680276546BF042F435F5026
S11307002827FF372760914FA760914F7A4CBC464A
S1130710DF59BA464F4655462F43B94667464D46BC
S1130720DD519F588B4D37439F508B4FBA46DF594D
S11307302F43B94657464D46DD51764D6F682740E5
S113074037436F60AF6827403E434746AE60834EF1
S11307501A253770C3277570BF00C559B846FF27DF
S1130760009CBD4325434446055180258D3C6D01C5
S1130770FF3C05510560F578753CFF3C2543644614
S1130780F57040261D5935431D5180249D58A40100
S113079025439D50724DA0462E6EA026F6002E666F
S11307A06C6E12246E666F4E7470B478A446C024C6
S11307B067462743C224B770FF27A400A146045903
S11307C0BC43A446C024A246644657463C43A446C0
S11307D04C4667460751C0275C467F00C4510460FD
S11307E080205C58000620434446585098582043C3
S11307F09850AA6F4048A02410402122A8675A4864
S1130800845480225858120502435A5062B6082074
S113081020224D4C236803432360F3781A4252D1BB
S1130820524AD3795B07DC0F002B4CDB0723137090
S1130830233353713A224D4B02259A71D9790423FB
S11308400B434A49803FCB71CB79FF3FBB43CB710C
S1130850CB793E37AB43CB71CB790343CB71302398
S1130860B1780B43B370424B32719846414B424EC0
S1130870994680235B429B4630BF3378DAB2924676
S1130880002BF9D0434600221B783270022B00D192
S11308907FE1032B00D134E1012B00D169E11E4B30
S11308A01A69802311005B0319401A4204D143469C
S11308B001221A70314B1980042C00D9A7E0304B67
S11308C0A4001B599F46FF23114A5520136100239E
S11308D0AA2193610D4A9361044A2A4BD050D15006
S11308E0FCE7C04610E000E080BB0000007004405C
S11308F03810000040F00F40FFF8FFFF00A0044054
S1130900C0F00F4000C004403C10000000800340D1
S113091000A003400090044000F00F40FFFFEFFFF1
S11309200001100000500440000064E0008000401A
S1130930581B000026F0FF1F0010024014F0FF1F98
S113094018F0FF1F00E100E000900340FFFF0000EB
S113095034100000000001040410000000A0064050
S113096000D004400060064000F003401CF0FF1F6C
S113097042F0FF1F4CF0FF1F43F0FF1F24F0FF1F46
S1130980301B000004110000C04B4E211D78C04BE9
S1130990C04A187800239C466B1C01323B408342BA
S11309A009D04C4661555C46BB4DD446E978214399
S11309B0C9B2E9701D0011780029EDD16346002BFE
S11309C001D0B24B1D70FFF769FD0023B34A1361D8
S11309D09361B34A9361B34B1B78022B00D10DE2B0
S11309E000D9E8E0002B00D1F1E1AF4BAF4A1B88FE
S11309F012889A4200D9F0E200230124AC4A137011
S1130A00A94A1380AB4A1380A64A023313705521B6
S1130A10A94AAA4BD1505531D1502DE7A848FFF728
S1130A20F7FCFFF73BFDFFF72DFDA64B1C78012CCF
S1130A3000D132E2022C00D1F9E1002C00D1E6E130
S1130A400224E4E7A048FFF7E3FCFFF727FDFFF7E4
S1130A5019FD01210022022002AB597102311A71E1
S1130A609871D971042302AC237201336372974BDA
S1130A701B78022B00D172E200D9CFE0002B00D109
S1130A8049E2934B934C1B88A34201D800F007FC26
S1130A90914CA34201D100F07AFC8D4B8C4A1B8807
S1130AA0013313800324B2E78C48FFF7B1FCFFF74E
S1130AB0F5FCFFF7E7FC8A4B1A68120600D564E1DF
S1130AC0874B1A6A120600D45CE1864B1C88864B5D
S1130AD01B78012B00D125E1824B0234A4B21C8087
S1130AE0FF231B019C4200D9ECE1212110207F4B04
S1130AF0E2B2240A1A705C705A5C042402435A5409
S1130B0085E77B4B1B69DB0200D4D5E643461A70AC
S1130B10002C00D138E7012C00D17FE7022C91D0C2
S1130B20032CC1D0042C00D0C6E67248FFF770FC39
S1130B30FFF7B4FCFFF7A6FC6F4A03AB13CA13C359
S1130B4003CA03C36D4B1B78012B00D136E1022B82
S1130B5000D124E16A4A6B4B127803A952001B8826
S1130B608A5A9A4200D8E1E2664A0133002413808B
S1130B704DE75F4B1B69DB024CD4634B1A88531C53
S1130B809BB2312A14D9022241460A705E4A13806C
S1130B9092E6574B1B69DB023CD4FA215A4B89007D
S1130BA01A88531C9BB28A4202D3032241460A701C
S1130BB0554A138080E6032B65D1344B43211D78BD
S1130BC0334B524A1C7800239C466B1C01323B4039
S1130BD0A34209D04846415558462F4DD446E9789A
S1130BE00143C9B2E9701D0011780029EDD16346B3
S1130BF0002B01D0254B1D70FFF750FC0022002371
S1130C002C490A80424A1370294A01241370254A48
S1130C101370FCE60023424613704DE6032B00D00C
S1130C2040E71A4B59211D78194B3A4A1C78002386
S1130C309C466B1C01323B40A34209D048464155B7
S1130C405846154DD446E9780143C9B2E9701D00F0
S1130C5011780029EDD16346002B01D00B4B1D7098
S1130C60FFF71CFC00220023194903240A802A4AA6
S1130C7013702A4A13702A4A1370144A1370C6E672
S1130C80084A073B13700124C1E6C0468CF0FF1FDD
S1130C908DF0FF1FDC19000000A0064000A00340F7
S1130CA00080034040F0FF1F3CF0FF1F3AF0FF1F9D
S1130CB011F0FF1F3EF0FF1F0070044004110000FC
S1130CC0D01A000048F0FF1FE81A00000AF0FF1FC6
S1130CD008F0FF1FB70B0000B80B0000001B00005A
S1130CE000B0034012F0FF1F0BF0FF1F00F00340A1
S1130CF000F00F40141B0000441B000034F0FF1FE1
S1130D0044F0FF1F32F0FF1F24F0FF1F381A0000C9
S1130D100CF0FF1F2C1A00000DF0FF1F0EF0FF1F38
S1130D200FF0FF1FBA4B023CA4B21C800F2C00D959
S1130D30DBE6B84B44211878B74BB84A1B789C467D
S1130D4000231D006346A4461C00431C01323B40A3
S1130D50A34209D04D4629545846B14DE978014380
S1130D60C9B2E9701800554611780029EDD16446DE
S1130D70002D01D0A74B1870FFF790FB0023A94A60
S1130D801370B2E617221A609FE61A69FF23134014
S1130D90A54A136100239361A44A936190E6A44B8E
S1130DA01C78A44B1B880093002C00D078E1009B96
S1130DB0192B00D1ADE29F4B1B88D5E69E4B1B69D6
S1130DC0DB02F8D402239D4A002413701FE69C4BD7
S1130DD01B780A2B00D153E79A4A9B491278CA54CC
S1130DE0974A0133DBB21370FA2292005343974AB5
S1130DF013800122964B14001A7008E6954A107865
S1130E008F4A1278824200D9C4E00023FCE6924B58
S1130E101A88FA239B009A4200D2B4E100D1E6E298
S1130E208D4B8D4A1B88022401331380EFE5794BE7
S1130E3049211878784B894A1B789C4600231D0069
S1130E406346A4461C00431C01323B40A34209D024
S1130E504D4629545846724DE9780143C9B2E970A8
S1130E601800554611780029EDD1230064469C46AC
S1130E70002D01D0674B1870794B1B78002B00D1E3
S1130E8088E1012B00D196E2022B00D1F8E2FFF7B2
S1130E9005FB0023734A1370B9E56F4B724A1B8834
S1130EA0934200D850E1714A9342B9D100235E4A7B
S1130EB06C49136193615D4A936102220A70664A28
S1130EC01380ADE7534B44211878534B684A1B7881
S1130ED09C4600231D006346A4461C00431C0132AB
S1130EE03B40A34209D04D46295458464C4DE9781D
S1130EF00143C9B2E9701800554611780029EDD1B3
S1130F006446002D01D0434B1870FFF7C7FA012245
S1130F10444B1A70E9E5574A12780092062A00D128
S1130F2097E1009A03AB9B5C002B00D195E1012B68
S1130F3000D1C1E2022B00D102E3032B00D16DE307
S1130F40042B00D19EE3052B00D1B6E3009B494A54
S1130F50013313700122484B03241A7057E52D4BBB
S1130F6043211D782C4B454A1C7800239C466B1C5E
S1130F7001323B40A34209D0484641555846284DCA
S1130F80D446E9780143C9B2E9701D0011780029FB
S1130F90EDD160E63A4A1188002900D1F0E1394ADE
S1130FA0914200D140E1384A384C8A1892B2A242A8
S1130FB000D827E1364B994200D828E1354B1D78FB
S1130FC0002D00D1DBE2234B0130187000232C4AA2
S1130FD0012413802F4A137019E5294A2E491288D7
S1130FE08A4200D9F8E01B4917480978415C002976
S1130FF000D17CE2012900D1B4E3022900D1B9E394
S11310001F4901320A80254A013301241380FEE47A
S113101012F0FF1F8CF0FF1F8DF0FF1FB81A0000A5
S113102000A006400BF0FF1F00A003400080034017
S113103000F0FF1F32F0FF1F00F00F4034F0FF1FDD
S11310400CF0FF1F26F0FF1F28F0FF1F3AF0FF1FD0
S113105040F0FF1F11F0FF1F46F0FF1F4C1A000065
S113106038F0FF1F48F0FF1FB70B0000B80B00005B
S1131070A01A00000DF0FF1F0AF0FF1F381A00002D
S11310803EF0FF1FEE02000011FDFFFFDA05000035
S1131090C908000010F0FF1FED0200003CF0FF1F24
S11310A00023D84A13619361D74A9361D74B009ABE
S11310B01B881100934200D99EE0D54B5221187829
S11310C0D44BD54A1D7800239A46D44B01949C46B0
S11310D0431C01323B40AB420BD04C462154614689
S11310E05846C97801436046C9B2C17001991800D5
S11310F08A4611780029EBD15346002B01D0C44B0A
S11311001870009C200AFFF7F3F9E0B2FFF7F0F93A
S11311100022C34B1A70C34B1A80C34B1B78013394
S1131120DBB20A2B7DD0C04A137044E60523B54ACE
S1131130002413619361B44A93610023B94A138074
S11311400122BA4B1A7062E4B94B1A6852077CD474
S11311500822B74B196811426DD0B64B1B88272B58
S11311605BD91A00B349283A0A800B3A0E2A00D9EF
S113117044E200230521B04A1370A24A116193612D
S1131180A14A93614CE605239E4A136193619E4AEA
S1131190936145E69E4B5221187800231D00634657
S11311A0A4461C00A54A431C01323B409C4209D082
S11311B04D4629545846994DE9780143C9B2E9701E
S11311C01800554611780029EDD16446002D00D150
S11311D05DE68F4B18705AE6FA2189008A4200D2E4
S11311E08CE1974B964A1B7801240133137000233A
S11311F0944A1380FFF70BFC002A00D15DE7834A71
S113120011805AE7854A1479A40600D57DE18D4BF7
S1131210013101241980FFF7FAFB0023854A13806A
S1131220FEE5814B1A70C6E50023764A136193618B
S1131230754A9361EBE7196811428ED11968043A33
S11312400A431A60804A5A6087E75B68794A1380C8
S11312507EE77E4A1370002300936D4B5421187867
S11312606C4B7B4A1D7800239C46431C01323B4057
S1131270AB4209D04C4621545846684CD446E178D8
S113128001431800C9B2E17011780029EDD1634619
S1131290002B01D05E4B1870FFF700F956E66D4B3A
S11312A0DB799B0704D56C4B1B781B0700D526E222
S11312B06A4AD3789B0601D5FFF7EFFB654BDB79D0
S11312C05B07D90F002B01DAFFF7E7FB614B62489C
S11312D0186004235F48037141713A218171C07918
S11312E003435C48C371C379012083435948C371E4
S11312F0C379022083435748C371C37908208343C9
S11313005448C37130239078034393701171FFF7ED
S1131310C4FB3F4B20211B78514A9C463D4B1D7812
S11313206346D446A2461C00631C01323B40AB42D8
S113133009D0484601555846384CE246E178014305
S1131340C9B2E1701C0011780029EDD1A4465446BD
S1131350002C02D062462E4B1A702C4B1C88200A9B
S1131360FFF7C6F8E0B2FFF7C3F8FFF797F80122DA
S11313702B4B1A7000232B4A13802C4A13701AE546
S11313800523204A136193611F4A93613FE7354B5C
S11313901B78002B00D1EEE0334B33491B7801332B
S11313A0DBB20B700A2B00D157E1304B1A80304B63
S11313B01A70FFF772FB164B4721187800231D00A3
S11313C06346A4461C002B4A431C01323B409C420A
S11313D009D04D4629545846104DE9780143C9B205
S11313E0E9701800554611780029EDD1EDE6012287
S11313F0044B1C619C61044B9C611F4B1C801F4B64
S11314001A700DE500A003400080034002F0FF1FA6
S11314108CF0FF1F8DF0FF1FF419000000A00640A0
S113142000F0FF1F32F0FF1F44F0FF1F34F0FF1FD6
S11314300050044036F0FF1F38F0FF1F5C1A000014
S113144011F0FF1F3EF0FF1F000040A00DF0FF1F32
S1131450701A00001CF0FF1F04F0FF1F006006401C
S1131460101A00000EF0FF1F0FF0FF1F08F0FF1FFF
S11314700AF0FF1F601A000046F0FF1F48F0FF1F2C
S1131480C24B4221187800231D006346A4461C0069
S1131490BF4A431C01323B409C4209D04D4629546B
S11314A05846BC4DE9780143C9B2E9701800554665
S11314B011780029EDD188E6B44B44211878B64B55
S11314C0B64A1C7800239C46431C01323B40A3428D
S11314D009D04D4629545846AE4DD446E9780143C7
S11314E01800C9B2E97011780029EDD1CFE60524BE
S11314F0AB4804618161AB48816181E50021A84862
S113150001618161A74881617AE5D279A649D2B2A5
S11315100A70722A00D19CE0672A00D132E1622A63
S113152001D1A24A1370A24B1A5CA04B1B789A42B9
S113153000D0EEE001229F4B14001A70FFF767FA07
S1131540924B54211878944B9B4A1C7800239C4658
S1131550431C01323B40A34209D04D46295458460E
S11315608C4DD446E97801431800C9B2E97011786A
S11315700029EDD18BE6914B1970FFF78EFA3023D9
S1131580894A50461370AA465922884B8C491D70CB
S1131590884B1D70824B1D619D61824B9D61894BFF
S11315A000901D70884B1D70884B1D80774B1B78F5
S11315B09C46794B1C786346013301313B40A3427E
S11315C00BD060464D462A545846724D9C46EA78E4
S11315D00243D2B2EA70009A92460A78002AEAD10B
S11315E05546002D02D06246684B1A70FEF756FF2E
S11315F00023774A01241370FFF709FA1A004C3AC2
S11316000E2A2ED80122734B05211A700023644A36
S113161013619161634A9361FFF702FC5B4B5421B0
S113162018785D4B6C4A1C7800239C46431C01329D
S11316303B40A34209D04D4629545846554DD44603
S1131640E97801431800C9B2E97011780029EDD195
S11316501DE60023554A137065E7584B1870FFF7D1
S11316601CFA6A3B182B01D9FFF7DAFB0223594A0B
S1131670137000224A4B1A619A614A4B05329A61EF
S1131680FFF7CEFB414B54211878434B534A1D7846
S113169000239C46431C01323B40AB4209D04C46DC
S11316A0215458463B4CD446E17801431800C9B252
S11316B0E17011780029EDD1E9E50025334BAC4602
S11316C01878354B05001B7844211800444A6B1CDC
S11316D001323B40834209D04C4661555C462D4D56
S11316E0D446E9782143C9B2E9701D001178002974
S11316F0EDD128006546002D00D0CBE5CCE5394B73
S11317009978DA785878264B18619961254B9A6153
S1131710CEE5002359219C46264A1370294A1370AA
S1131720294A1370294A1380184A15781A4A1078DE
S1131730234A6B1C01323B40834209D04C4661551D
S11317405C46144DD446E9782143C9B2E9701D00C2
S113175011780029EDD16346002B00D146E70B4BED
S11317601D7043E7002105240D48016184610D4883
S1131770816145E400200A4908618861094905300E
S113178088613DE4094B663A1A70CCE68CF0FF1F81
S1131790681A000000A006408DF0FF1F741A0000B4
S11317A000A00340008003408EF0FF1F8FF0FF1F56
S11317B028F0FF1F10F0FF1F801A00000AF0FF1F1F
S11317C02C1A00000CF0FF1F11F0FF1F3EF0FF1F4A
S11317D040F0FF1F38F0FF1F881A0000901A000025
S11317E0981A000004F0FF1F0122014B1A70704781
S11317F043F0FF1F84218022064B490052045A50B3
S1131800054A1068802252009850044A12885200F7
S11318105A5070470080004014F0FF1F18F0FF1F5B
S11318200A4A0B4913780978994208D00949C85CD7
S113183009490133C8713F210B40137070477F235E
S1131840054AD1780B40D370F8E7C0468DF0FF1FEE
S11318508CF0FF1F4CF0FF1F00A00640022070B563
S11318605A4A5B49D3780343DBB2D3700B78032B1A
S113187053D03BD8012B00D173E0022B63D1002459
S1131880544B554D18792C570130844200D187E0D0
S1131890621E52B22A70002C18D0002A00D187E0B0
S11318A0012A04D10825494CA0782843A07018794E
S11318B0824200D182E010261D68681C18604348EB
S11318C08478B44384700079C0B22870002A39D176
S11318D00A700421DA798A430221DA71DA790A4337
S11318E00121DA71DA798A43DA712BE0042B2AD1E7
S11318F0D478E40714D420259478AC43947000225F
S11319000A70344AD1799943D1710121D3791843AA
S1131910D071D3798B43D37114E0D378DB0738D5F6
S11319202C4B0421DA798A430221DA71DA790A43E9
S11319300121DA71DA790A432021DA71234A937892
S11319408B43937070BD214BDA78D207E8D42148D9
S11319504279D2B21A71C3791B0726D503230B70BF
S1131960F0E7D0788343DBD001201425194CA37908
S113197003439078DBB228439070137102230B70F9
S11319802379154901330B70082193788B439370A5
S1131990D8E7104B1B78DBB2137104230B70D1E72B
S11319A0D278D20700D473E7BBE701230B70C9E7F1
S11319B02025064CA078A843A07078E7102503489A
S11319C08478AC438470007980E7C04600600640A8
S11319D041F0FF1F1CF0FF1F1AF0FF1F4E4F57204E
S11319E0504C4159494E472053494D4F4E20534185
S11319F0595300005265616374696F6E2054696DB8
S1131A0065202848657820696E206D73293A200086
S1131A1020486967682053636F7265202848657899
S1131A2020696E206D73293A20000000594F55201B
S1131A304C4F534521000000434F4E4752415453ED
S1131A402120594F552057494E210000496E707589
S1131A507420436F6C6F723A2000000052454400BA
S1131A60475245454E000000424C554500000000D9
S1131A7054415000444F55424C45205441500000BD
S1131A8054494C542058000054494C5420590000E7
S1131A9054494C54205A000044524F500000000056
S1131AA0444143204D41582056414C554520524510
S1131AB04143484544000000444143204D494E20E1
S1131AC056414C5545205245414348454400000089
S1131AD04E4F5720504C4159494E4720544F55437F
S1131AE0482053454E5345004E4F5720504C4159C2
S1131AF0494E4720414343454C2047414D45000052
S1131B004E4F5720504C4159494E472041444320A1
S1131B10444143004E4F5720504C4159494E4720B1
S1131B205245414354494F4E2054494D450000000D
S1131B30380B0000D60900002A0A0000520A0000EF
S1131B40B60A0000E803D007B80BA00F8813F4010D
S10F1B50DC05C409AC0D94110001020076
S1071B5C0100FFFF82
S9030131CA
