S013000066696E616C41737369676E2E73726563A2
S11300000030002031010000C1000000C5000000E4
S1130010C1000000C1000000C1000000C1000000D8
S1130020C1000000C1000000C1000000C1000000C8
S1130030C1000000C1000000C10000004510000024
S113004051100000C1000000C1000000C100000008
S1130050C1000000C1000000C1000000C100000098
S1130060C1000000C1000000C1000000C100000088
S11300707D100000C1000000C1000000C1000000AC
S1130080C1000000C1000000C1000000C100000068
S1130090C1000000C1000000C1000000C100000058
S11300A0C1000000C1000000C1000000C100000048
S11300B0C1000000C1000000C1000000C100000038
S11300C0FEE7C046FEE7C04680221249124B920169
S11300D0585870B502435A508121104A10484900BB
S11300E0516042690139FF398A4342610269114210
S11300F008D15526AA2502240A4A9E509D5001691A
S11301000C42FAD00449034A07488B5803408B50E9
S113011070BDC046381000000070044000D0044098
S113012000F10F4004110000FFDFFFFFC046C0468E
S1130130FFF7CAFF374A384B38499A608022384B58
S11301409200585802435A50364A374999501A680F
S113015036490A4080211A60354A490298580143B9
S113016099509958334808408021490401439950D3
S1130170314B3248996C014099640021DA6C024099
S1130180DA642F4B2F4A197024235370743313707D
S1130190D078793B0340D37001231371517110312E
S11301A093791942FCD10C21264A93790B40082BF0
S11301B0FBD1402138335371224A93791942FCD040
S11301C0182313700C221F498B7913400C2BFBD17D
S11301D01D4A1E4B9A421AD2013B991A00238908E0
S11301E001311B488900C458D45004338B42FAD1DE
S11301F0D318184A934208D80321D21A8A43191DE6
S11302005218002102C39342FCD100F043F91300B9
S1130210EFE7C0460000000000ED00E038100000E9
S1130220007004404410000000000110FFFFF3FFC1
S113023004100000FFFFFFFC00900440FFF8FFFEE5
S1130240005006400040064000F0FF1F04F0FF1F6E
S11302505C11000050F0FF1F0000000000000000CF
S1130260000000000000000000000000000000008A
S1130270000000000000000000000000000000007A
S1130280000000000000000000000000000000006A
S1130290000000000000000000000000000000005A
S11302A0000000000000000000000000000000004A
S11302B0000000000000000000000000000000003A
S11302C0000000000000000000000000000000002A
S11302D0000000000000000000000000000000001A
S11302E0000000000000000000000000000000000A
S11302F000000000000000000000000000000000FA
S113030000000000000000000000000000000000E9
S113031000000000000000000000000000000000D9
S113032000000000000000000000000000000000C9
S113033000000000000000000000000000000000B9
S113034000000000000000000000000000000000A9
S11303500000000000000000000000000000000099
S11303600000000000000000000000000000000089
S11303700000000000000000000000000000000079
S11303800000000000000000000000000000000069
S11303900000000000000000000000000000000059
S11303A00000000000000000000000000000000049
S11303B00000000000000000000000000000000039
S11303C00000000000000000000000000000000029
S11303D00000000000000000000000000000000019
S11303E00000000000000000000000000000000009
S11303F000000000000000000000000000000000F9
S1130400FFFFFFFFFFFFFFFFFFFFFFFF7EF7FFFF81
S11304105722F0B59446C646030900B59C449F286C
S113042002D8273A94469C441F252F00154B164AA0
S11304301C7811789846631C0A001F408F420CD028
S11304406646124A1655424680241770104AD378DD
S113045023433C00D3707A1C2A400F231840030026
S11304605733092800D8273B8A4208D007490B553F
S1130470434680211A70064AD3780B43D37080BC5C
S1130480B846F0BD4CF0FF1F4DF0FF1F2CF0FF1FCE
S113049000A00640F0B5DE4657464E464546E0B558
S11304A089B072B60726C24BC24A1E605A608822BF
S11304B00A2180208025C04B52019950BF4AC000B8
S11304C099586D01014399509958C027294399506F
S11304D08021BB4CC9026069BA4D0143BA486161CD
S11304E0816CBF0029403943816461698C46802155
S11304F06746090339436161C0240227C16CA40023
S113050029402143C164B14801344169FF3439436E
S11305104161AF48B9464168294021434160802088
S1130520AC49C0045C582043585080205C584004B7
S113053020435850A84CA948066026601D36C66062
S113054046616661DA368660A660002606618661C9
S1130550A661076808363743076080272068BF0014
S1130560304320609858384398509D48076D2F4079
S1130570B84680277F00BC46474666463743076532
S1130580984FBA467F69B846974FBB4647465E4682
S11305903740B846574646467E619F58B84620279E
S11305A0BA464746564637439F50904FB846904FF9
S11305B0BA46474656463E603F68BA468027BB4621
S11305C057465E463743BA46474656463E605F58EE
S11305D0B8464F46464637435F50822766467F01FA
S11305E0B946DF593743B8464F464646DE51814F38
S11305F0B84686277F00B9467F4F4E46BA464746DF
S11306005446BC517D4F6446B94647464E463E511A
S113061082277F00BC4647466446794E3E51842774
S11306207F00BC46033FFF3FBA46644647465646F2
S11306303E51744FBC46B727B846674644463C70A3
S11306404C46714F3C60714FBC460327B846674621
S113065044463C80C0246E4FA400BC463F5926004B
S1130660B946FF27B8464F464446A7435C4627434E
S1130670B94667464C46BC51C0277F00B94664461C
S11306804E46803FFF3FA75127605F58614EBA46F0
S113069080275446BF0427435F5028275E49FF370D
S11306A00F605E4F80248F609F598026F600374389
S11306B0584EA4009F519F58260027439F50584FDF
S11306C0DA5992465446574A22433400DA51436871
S11306D0554A2B403343436083681D402C43002319
S11306E08460C320644613701A3353708000235807
S11306F04446A3435C462343644623508023604618
S11307004C465B01035103600C20D3780343D37040
S113071062B60B68F93EFF3E33430B6080235B42B5
S113072000219B46414C424E30BF2378DAB29246B8
S1130730002BF9D0002233782270022B00D1ABE1D8
S1130740032B00D14DE1012B00D13BE1254B1A696C
S1130750802310005B0318401A4203D10123337035
S1130760344B1880012900D1B9E0334A03AB23CAC2
S113077023C303CA03C3314B1B78012B00D1B0E15F
S1130780022B00D19CE12E4A2E4B127803A9520071
S11307901B888A5A9A4200D8D4E22A4A0133138029
S11307A000215520044A284BD0505530D050BBE787
S11307B010E000E080BB000000700440381000002E
S11307C040F00F40FFF8FFFF00A00440C0F00F40CE
S11307D000C004403C1000000080034000A003401F
S11307E00090044000F00F40FFFFEFFF0050044072
S11307F00001100000800040000064E05811000077
S113080010F0FF1F0010024008F0FF1F0CF0FF1F44
S113081000E100E03410000000900340FFFF0000FE
S1130820041000000000010400A006402AF0FF1F8D
S113083029F0FF1F0EF0FF1F4411000020F0FF1FDE
S11308402BF0FF1F1EF0FF1F041100001F339C46F6
S1130850C64BC74A98464E316746431C01323B405B
S1130860AB420BD0C34F395441465846C978014373
S11308704046C9B2C170514618000191117800294F
S1130880EAD1019B002B00D10CE2BB4B18701F2254
S11308901100431C19408C460B00A94219D00A21AF
S11308A0B44F39545846B4490B70B049CB7803431C
S11308B0DBB2CB70634601331A40AA4209D00D2340
S11308C060463B54AC4B1A705A46CB781343DBB2A8
S11308D0CB700023A94A13619361A94A9361A94B80
S11308E01B78022B00D103E115D8002B00D107E1BE
S11308F0A54BA64A1B8812889A4200D91BE1002303
S1130900A34A01211370A04A1380A24A13809D4A6E
S11309100233137045E7032B52D1974B43211878C8
S11309209D4B9E4A1D78002399461F339C468F4B4E
S1130930019098466746431C01323B40AB420AD0C3
S11309408C4FD146395441465846C97801434046F4
S1130950C9B2C170180011780029EBD14B46002BA5
S113096000D101E2844B18701F221100431C19406E
S11309708C460B00A94219D00A217E4F395458469F
S11309807D490B707949CB780343DBB2CB70634666
S113099001331A40AA4209D00D2360463B54764BDA
S11309A01A705A46CB781343DBB2CB700022002373
S11309B078490A807A4A1370754A1370714A137021
S11309C00121EEE6774B1B69DB0276D4764B1A885D
S11309D0531C9BB2312A6DD902223270724A1380A1
S11309E0C0E6704B1B69DB0200D4BBE6624B32707D
S11309F01B789946684B48461D78002301930029CB
S1130A0000D123E71F339C46584B4E219846674A32
S1130A106746431C01323B40AB420BD0554F39541F
S1130A2041465846C97801434046C9B2C17051464F
S1130A301800019111780029EAD1019B002B00D103
S1130A40FCE14D4B18701F221100431C19408C46C9
S1130A500B00A94219D00A21464F39545846464939
S1130A600B704249CB780343DBB2CB70634601334E
S1130A701340AB4209D06046123A3A543E4A1370CE
S1130A805A46CB781343DBB2CB7000233B4A136145
S1130A9093613B4A936168E6424B1B69DB020CD4C9
S1130AA0FA20414B80001A88531C9BB2824201D326
S1130AB0032232703C4A138054E60023337051E61B
S1130AC03B4B1D783B4B1B889846002D00D0EBE038
S1130AD0322B00D14AE11800013080B2354B188026
S1130AE05EE6304B1B69DB0221D5324B1B8854E692
S1130AF0274A10782A4A1278824265D800235BE795
S1130B00274B1B780A2B00D129E12B4A2B49127859
S1130B10CA54234A0133DBB21370FA2292005343BE
S1130B201A4A012113800123164A137039E602235D
S1130B30234A137034E6174A224912888A4200D99C
S1130B406EE113491D480978415C002900D194E104
S1130B50012900D14CE2022900D151E20D490132B0
S1130B600A80094A0133012113801AE600A00640D5
S1130B70B81000002CF0FF1F4CF0FF1F00A0034032
S1130B800080034028F0FF1F24F0FF1F22F0FF1F06
S1130B9005F0FF1F26F0FF1F4DF0FF1F301100006E
S1130BA004F0FF1F00F00F400EF0FF1FD0100000F4
S1130BB000F0FF1F1EF0FF1F10F0FF1F14F0FF1FB7
S1130BC020F0FF1FED020000C94A1288002A00D15C
S1130BD05AE1C8498A4200D171E1C749C74D511849
S1130BE089B2A94200D82BE1C54B9A4200D834E11E
S1130BF00023C44A994613619361C34A59219361FE
S1130C00C24A1370C24A1370B94A1380C14BC24A14
S1130C109C4612789046C14A1078C14A43461F2523
S1130C20013301322B4083420BD04746BD4DD146A0
S1130C30E95561465F46C978984639436746C9B263
S1130C40F97011780029E9D14B46002B02D04246B5
S1130C50B14B1A701F25B04B1A78531C2B40D9B2D4
S1130C608846834219D00A27AE498F5441465F46CD
S1130C70A94A1170A749CA783A43D2B2CA705A1C19
S1130C801540854209D00D22A648C254A24B1D70BE
S1130C905A46CB781343DBB2CB700023A24A01211E
S1130CA013707EE54846F2E50023964A136193618A
S1130CB0954A93619D4B1B88434503D94346002BBA
S1130CC000D0CFE0944B52211878944B984A1B786B
S1130CD09946002301931F339A468E4B9C464B46FC
S1130CE0A9461D005746431C01323B40AB420BD082
S1130CF08C4F395461465846C97801436046C9B29D
S1130D00C17049461800019111780029EAD1019B6C
S1130D10002B01D0804B18704346180AFFF778FB6C
S1130D204346D8B2FFF774FB0023824A1370824B08
S1130D301B780133DBB20A2B00D1ACE07E4A0120E0
S1130D401370CBE605236F4A136193616E4A936176
S1130D5000237A4A13807A4A0133137020E5724AD9
S1130D60073B012113701CE50198FDE56A4B202126
S1130D701B78744A9946694B1B7898461F239C46F6
S1130D804346A8461D004B466746013301323B40AB
S1130D90AB420BD04F466348D046C1555F46994697
S1130DA05C495C48C9783943C9B2C17011780029DB
S1130DB0E9D12B0045469846002D02D04A46564BB1
S1130DC01A705A4B1D88280AFFF722FBE8B2FFF776
S1130DD01FFB1F221000504B19784B1C1840404534
S1130DE016D00A254F4F7D545D464B49087049493A
S1130DF0CB782B43DBB2CB70431C1A40424507D05F
S1130E000D233B54444B1A70CB782B43DBB2CB708D
S1130E100123484A012013700023494A13705DE6F8
S1130E20FA2189008A4221D3394B394A1B7801219E
S1130E300133137000232E4A1380B2E4484602E6BD
S1130E4034490D7988462F0020210F400D4227D1C7
S1130E502C4B1F619F612C4B9F61254B013201215B
S1130E601A809EE44246314B1A802BE70021254824
S1130E70016181612448816170E60525214805618D
S1130E8081612148816169E605231E490B618B61FB
S1130E901D498B61E1E70023274A012013701DE6F9
S1130EA04246D2792849D2B20A70722A0ED0672AF1
S1130EB000D1ADE0622A0CD1244A137009E000236A
S1130EC010490B618B6110498B61C6E700231F4AEF
S1130ED013701F4B1A5C1D4B1B789A423AD10C4B72
S1130EE0013018700023024A0121138059E4C046DE
S1130EF026F0FF1FEE02000011FDFFFFDA050000DF
S1130F00C908000000A003400080034004F0FF1F54
S1130F1005F0FF1F00A006404CF0FF1F4DF0FF1F1F
S1130F20241100002CF0FF1F28F0FF1F02F0FF1F08
S1130F30EC10000000F0FF1F2BF0FF1F1EF0FF1F3E
S1130F4020F0FF1F081100004EF0FF1F4FF0FF1F9D
S1130F5014F0FF1F0023304A994613702F4A592179
S1130F6013702F4A13802F4B2F4A9C4612789046B9
S1130F702E4A10782E4A43461F25013301322B4056
S1130F8083420BD047462B4DD146E95561465F4617
S1130F90C978984639436746C9B2F970117800296F
S1130FA0E9D14B46002B02D042461F4B1A701F2535
S1130FB01D4B1A78531C2B40D9B28846834200D16A
S1130FC06BE60A271B498F5441465F46164A117047
S1130FD01449CA783A43D2B2CA705A1C2A4082428F
S1130FE000D15AE60D20134DE8540F4B1A704FE60A
S1130FF00021052510480161856110488161ADE536
S113100000200D49086188610C4905308861A5E517
S113101001230B4A13705CE704F0FF1F05F0FF1F68
S113102026F0FF1F00A006404CF0FF1F4DF0FF1FED
S1131030241100002CF0FF1F00A003400080034097
S11310404FF0FF1F0122014B1A7070472AF0FF1F57
S113105084218022064B490052045A50054A1068E4
S1131060802252009850044A128852005A50704705
S11310700080004008F0FF1F0CF0FF1F0A4A0B49D4
S113108013780978994208D00949C85C09490133A1
S1131090C8711F210B40137070477F23054AD17814
S11310A00B40D370F8E7C0464DF0FF1F4CF0FF1F14
S11310B02CF0FF1F00A006404E4F5720504C4159C2
S11310C0494E472053494D4F4E2053415953000038
S11310D04E4F5720504C4159494E472052454143A9
S11310E054494F4E2054494D4500000052656163F8
S11310F074696F6E2054696D65202848657820698D
S11311006E206D73293A2000204869676820536374
S11311106F7265202848657820696E206D73293ABE
S113112020000000594F55204C4F5345210000002A
S1131130434F4E47524154532120594F552057494C
S11311404E210000E803D007B80BA00F8813F40168
S10F1150DC05C409AC0D94110001020080
S107115C0100FFFF8C
S9030131CA
