S013000066696E616C41737369676E2E73726563A2
S11300000030002031010000C1000000C5000000E4
S1130010C1000000C1000000C1000000C1000000D8
S1130020C1000000C1000000C1000000C1000000C8
S1130030C1000000C1000000C10000003D0A000032
S1130040490A0000C1000000C1000000C100000016
S1130050C1000000C1000000C1000000C100000098
S1130060750A0000C1000000C1000000C1000000CA
S1130070F50B0000C1000000C1000000C100000039
S1130080C1000000C1000000C1000000C100000068
S1130090C1000000C1000000C1000000C100000058
S11300A0C1000000C1000000C1000000C100000048
S11300B0C1000000C1000000C1000000C100000038
S11300C0FEE7C046FEE7C04680221249124B920169
S11300D0585870B502435A508121104A10484900BB
S11300E0516042690139FF398A4342610269114210
S11300F008D15526AA2502240A4A9E509D5001691A
S11301000C42FAD00449034A07488B5803408B50E9
S113011070BDC046381000000070044000D0044098
S113012000F10F4004110000FFDFFFFFC046C0468E
S1130130FFF7CAFF374A384B38499A608022384B58
S11301409200585802435A50364A374999501A680F
S113015036490A4080211A60354A490298580143B9
S113016099509958334808408021490401439950D3
S1130170314B3248996C014099640021DA6C024099
S1130180DA642F4B2F4A197024235370743313707D
S1130190D078793B0340D37001231371517110312E
S11301A093791942FCD10C21264A93790B40082BF0
S11301B0FBD1402138335371224A93791942FCD040
S11301C0182313700C221F498B7913400C2BFBD17D
S11301D01D4A1E4B9A421AD2013B991A00238908E0
S11301E001311B488900C458D45004338B42FAD1DE
S11301F0D318184A934208D80321D21A8A43191DE6
S11302005218002102C39342FCD100F043F91300B9
S1130210EFE7C0460000000000ED00E038100000E9
S1130220007004404410000000000110FFFFF3FFC1
S113023004100000FFFFFFFC00900440FFF8FFFEE5
S1130240005006400040064000F0FF1F00F0FF1F72
S1130250540C00003EF0FF1F0000000000000000EE
S1130260000000000000000000000000000000008A
S1130270000000000000000000000000000000007A
S1130280000000000000000000000000000000006A
S1130290000000000000000000000000000000005A
S11302A0000000000000000000000000000000004A
S11302B0000000000000000000000000000000003A
S11302C0000000000000000000000000000000002A
S11302D0000000000000000000000000000000001A
S11302E0000000000000000000000000000000000A
S11302F000000000000000000000000000000000FA
S113030000000000000000000000000000000000E9
S113031000000000000000000000000000000000D9
S113032000000000000000000000000000000000C9
S113033000000000000000000000000000000000B9
S113034000000000000000000000000000000000A9
S11303500000000000000000000000000000000099
S11303600000000000000000000000000000000089
S11303700000000000000000000000000000000079
S11303800000000000000000000000000000000069
S11303900000000000000000000000000000000059
S11303A00000000000000000000000000000000049
S11303B00000000000000000000000000000000039
S11303C00000000000000000000000000000000029
S11303D00000000000000000000000000000000019
S11303E00000000000000000000000000000000009
S11303F000000000000000000000000000000000F9
S1130400FFFFFFFFFFFFFFFFFFFFFFFF7EF7FFFF81
S11304105722F0B59446C646030900B59C449F286C
S113042002D8273A94469C441F252F00154B164AA0
S11304301C7811789846631C0A001F408F420CD028
S11304406646124A1655424680241770104AD378DD
S113045023433C00D3707A1C2A400F231840030026
S11304605733092800D8273B8A4208D007490B553F
S1130470434680211A70064AD3780B43D37080BC5C
S1130480B846F0BD3CF0FF1F3DF0FF1F1CF0FF1FFE
S113049000A00640F0B5DE4657464E464546E0B558
S11304A083B072B60726E14BE14A1E605A60882287
S11304B00A2180208024DF4B52019950DE4AC0007B
S11304C099586401014399509958C0272143995080
S11304D08021DA4DC9026869D94C01436961A16C74
S11304E0D848BF0001403943A1646969BA468C46C3
S11304F08021674609033943696155460227E16C47
S1130500BC4601402943E164CF4C01356169FF35A4
S113051039436161CD4C063761680140294361600C
S11305208021CB4DC9045C590020214359518021BD
S11305305C59490421435951C64CC74983460E604E
S113054026601D36CE604E616661DA368E60A66026
S113055008618861A0610E68BA483E430E60216854
S11305603943216080249958A4002143BB4C9950FD
S1130570216DF837014039432165B949B9488846A6
S11305804969803F014040464161202099583E001E
S113059001439950B448B549086008683843086075
S11305A060465959803701435951822149018C468B
S11305B06046595839431950862040008446AC4857
S11305C0AC498046604647460F508027AA487F00C2
S11305D0C85184468220A94F40000F500430804601
S11305E0FC38814640464F460F50A54951380870A3
S11305F06046A449574608600620A3490880A349D9
S1130600C8590700FF208743380037003043564657
S11306108851C0207F3F40000F500F6080278146E3
S11306205859BF04074328205F51994FFF30386061
S11306309848A026B8605859804680200005844612
S113064040466146084358515959884680214046DE
S113065009060843802158519D5889010D439D5036
S11306608D4D8846A96F0800764908408B49A867D4
S11306708A4621218C46514660460E548849834E51
S11306808C4659580800402108436146585040465A
S1130690995808439850296EA021C90088462966B4
S11306A0696E4146696612217E4D6970A978884653
S11306B0C02140460843C221A8708900FF20755814
S11306C08846C02185430D43414675504946013053
S11306D070506146306080265D58F60035438026B0
S11306E0B6005D5031009D58564835439D506E4DBF
S11306F06E4A5E5932435A516368524AFF26134088
S11307000B436360A3688025184008435B46A060E0
S1130710C320674A5D4913701A33537080000B5825
S11307208024B3432B430B504B466401CC500C60E4
S11307300C21D3780B43D37062B608223B680021A6
S113074013433B605B4B002599465B4B5B4C9A46DD
S11307505B4B5C4E9B4630BF2278D3B2002AFAD062
S113076032782570022A00D1B0E0032A39D0012A58
S113077026D03B4A106980220700520317401042DA
S113078003D1012232704A461780012910D0022970
S113079000D1B1E0002935D05520264A4A4BD0502B
S11307A05530D050D7E72C4B19619961294B996189
S11307B0FF22294B01211D619A61264B9D61EBE7C4
S11307C0274A1269D20200D59EE04A461088421C8C
S11307D092B2312800D887E0022030704846028067
S11307E0D3E71F4A1269D202CFD535700029DAD077
S11307F0012900D17BE00229CED1174A1561956108
S1130800144A956152461278012A00D18EE0022AD8
S113081000D17BE05B46194A1B881288934200D3BF
S1130820EDE05A46013300211380B5E710E000E003
S113083080BB0000007004403810000040F00F40FE
S113084000A00440FFF8FFFFC0F00F4000C00440C8
S11308503C1000000080034000A0034000900440CE
S113086000F00F40FFFFEFFF0001100000500440B4
S1130870000064E000800040480C000012F0FF1FFC
S11308800010024000F0FF1F04F0FF1F00E100E031
S113089000900340FFFF000000D0044000F003403C
S11308A03410000000600640041000000000010441
S11308B000A0064010F0FF1F18F0FF1F1BF0FF1FE1
S11308C016F0FF1F1AF0FF1F04110000524A1269AC
S11308D0D20219D44A46FA271088BF00421C92B2A9
S11308E0B84201D303203070484602804DE74B4B99
S11308F01D619D614A4B9D61FF22484B02211D6190
S11309009D61474B9A6147E735703EE7454A127847
S11309109446002A16D0404B00211B69DB0200D408
S11309203AE7404B1D7053461D7035E73A4B1B693F
S1130930DB0202D55B461B8873E702235246002183
S1130940137029E752209846374A38491778384AAD
S1130950127801921F237A1C1A40019B01319A429A
S11309600AD0344BC446D8558027334B7F42D878BD
S113097038431700C0B2D87008780028EAD1019B28
S113098098466346002B01D0274B1F705B461F8897
S1130990380AFFF73DFDF8B2FFF73AFD1F221000B9
S11309A0214B19784B1C18408446030040451BD04A
S11309B00A20204F78541C490B7080231E495B4247
S11309C0CF781F436346FFB2CF705F1C3A40424565
S11309D00AD00D271748C754802313485B4202707E
S11309E0CA781343DBB2CB700C4B0E4A1D619D6178
S11309F00B4B9D61012313705B461D808BE7FF2326
S1130A00064A002113619361054A93615B4652468D
S1130A101D8001231370BFE600F00F4000A00340C7
S1130A200080034014F0FF1F3CF0FF1F300C000057
S1130A303DF0FF1F1CF0FF1F00A006400122014BE8
S1130A401A7070471BF0FF1F84218022064B490057
S1130A5052045A50054A1068802252009850044AA1
S1130A60128852005A5070470080004000F0FF1F67
S1130A7004F0FF1F022070B55A4A5B49D378034340
S1130A80DBB2D3700B78032B53D03BD8012B00D1AE
S1130A9073E0022B63D10024544B554D18792C5725
S1130AA00130844200D187E0621E52B22A70002CC9
S1130AB018D0002A00D187E0012A04D10825494C26
S1130AC0A0782843A0701879824200D182E01026D1
S1130AD01D68681C186043488478B44384700079A6
S1130AE0C0B22870002A39D10A700421DA798A4305
S1130AF00221DA71DA790A430121DA71DA798A4357
S1130B00DA712BE0042B2AD1D478E40714D42025FD
S1130B109478AC43947000220A70344AD179994392
S1130B20D1710121D3791843D071D3798B43D37117
S1130B3014E0D378DB0738D52C4B0421DA798A43C7
S1130B400221DA71DA790A430121DA71DA790A4386
S1130B502021DA71234A93788B43937070BD214B23
S1130B60DA78D207E8D421484279D2B21A71C3792B
S1130B701B0726D503230B70F0E7D0788343DBD023
S1130B8001201425194CA37903439078DBB2284340
S1130B909070137102230B702379154901330B7084
S1130BA0082193788B439370D8E7104B1B78DBB202
S1130BB0137104230B70D1E7D278D20700D473E702
S1130BC0BBE701230B70C9E72025064CA078A84396
S1130BD0A07078E7102503488478AC4384700079CA
S1130BE080E7C0460060064019F0FF1F08F0FF1FB1
S1130BF006F0FF1F0A4A0B4913780978994208D076
S1130C000949C85C09490133C8711F210B4013709D
S1130C1070477F23054AD1780B40D370F8E7C0466C
S1130C203DF0FF1F3CF0FF1F1CF0FF1F00A006401B
S1130C305265616374696F6E2054696D652028691B
S1130C406E206D73293A2000E803D007B80BA00F7B
S1070C50881370177A
S9030131CA
