S0110000746573745F646D61302E7372656392
S11300000030002031010000C1000000C5000000E4
S1130010C1000000C1000000C1000000C1000000D8
S1130020C1000000C1000000C1000000C1000000C8
S1130030C1000000C1000000C1000000F105000083
S1130040FD050000C1000000C1000000C100000067
S1130050C1000000C1000000C1000000C100000098
S1130060C1000000C1000000C1000000C100000088
S1130070C1000000C1000000C1000000C100000078
S1130080C1000000C1000000C1000000C100000068
S1130090C1000000C1000000C1000000C100000058
S11300A0C1000000C1000000C1000000C100000048
S11300B0C1000000C1000000C1000000C100000038
S11300C0FEE7C046FEE7C04680221249124B920169
S11300D0585870B502435A508121104A10484900BB
S11300E0516042690139FF398A4342610269114210
S11300F008D15526AA2502240A4A9E509D5001691A
S11301000C42FAD00449034A07488B5803408B50E9
S113011070BDC046381000000070044000D0044098
S113012000F10F4004110000FFDFFFFFC046C0468E
S1130130FFF7CAFF374A384B38499A608022384B58
S11301409200585802435A50364A374999501A680F
S113015036490A4080211A60354A490298580143B9
S113016099509958334808408021490401439950D3
S1130170314B3248996C014099640021DA6C024099
S1130180DA642F4B2F4A197024235370743313707D
S1130190D078793B0340D37001231371517110312E
S11301A093791942FCD10C21264A93790B40082BF0
S11301B0FBD1402138335371224A93791942FCD040
S11301C0182313700C221F498B7913400C2BFBD17D
S11301D01D4A1E4B9A421AD2013B991A00238908E0
S11301E001311B488900C458D45004338B42FAD1DE
S11301F0D318184A934208D80321D21A8A43191DE6
S11302005218002102C39342FCD100F001F91300FB
S1130210EFE7C0460000000000ED00E038100000E9
S1130220007004404410000000000110FFFFF3FFC1
S113023004100000FFFFFFFC00900440FFF8FFFEE5
S1130240005006400040064000F0FF1F00F0FF1F72
S11302506806000009F0FF1F000000000000000015
S1130260000000000000000000000000000000008A
S1130270000000000000000000000000000000007A
S1130280000000000000000000000000000000006A
S1130290000000000000000000000000000000005A
S11302A0000000000000000000000000000000004A
S11302B0000000000000000000000000000000003A
S11302C0000000000000000000000000000000002A
S11302D0000000000000000000000000000000001A
S11302E0000000000000000000000000000000000A
S11302F000000000000000000000000000000000FA
S113030000000000000000000000000000000000E9
S113031000000000000000000000000000000000D9
S113032000000000000000000000000000000000C9
S113033000000000000000000000000000000000B9
S113034000000000000000000000000000000000A9
S11303500000000000000000000000000000000099
S11303600000000000000000000000000000000089
S11303700000000000000000000000000000000079
S11303800000000000000000000000000000000069
S11303900000000000000000000000000000000059
S11303A00000000000000000000000000000000049
S11303B00000000000000000000000000000000039
S11303C00000000000000000000000000000000029
S11303D00000000000000000000000000000000019
S11303E00000000000000000000000000000000009
S11303F000000000000000000000000000000000F9
S1130400FFFFFFFFFFFFFFFFFFFFFFFF7EF7FFFF81
S1130410F0B5DE4657464E464546E0B572B607256A
S113042080215B4B5B4A1D605B485A605B4BC90093
S1130430C2585B4E0A43C2508022C4585201224320
S1130440C25080237269DB021343C022554C73618E
S1130450A36C554F92003B401343A36473699246C7
S11304609C46802362461B03134352467361022653
S1130470E36C3B401343E3644C4C4D4A636994463C
S1130480334363614B4C63681F403943616080218F
S1130490494BC904C45808272143C1508021C4587A
S11304A049042143C1502421444C25601560E16076
S11304B061615161DA31A160916000212161A16122
S11304C091612168394321601168394311608021A9
S11304D0C558890429432825C1503949FF350D6081
S11304E0384D394A8D60C55835438226C55080251C
S11304F0760183596D002B4383518626334B760056
S11305009A51334A5A5193468222324D52009D5099
S113051004329046C83A914642464E469E502E4B6F
S1130520513A1A705A462D4B203E1A602C4BFF222A
S11305301E8053462B4EF35893437F3A134352463F
S1130540B3500123813AFF3AB35033608823773A9A
S11305505B01FF3AC25062B60B68234E3B430B600B
S113056055239946553300279846204930BF0B78C8
S1130570002BFBD00F702A882B88120ADBB2226171
S1130580A36163469F614B46835143468351EDE724
S113059010E000E080BB0000007004403810000050
S11305A040F00F4000A00440FFF8FFFFC0F00F40F0
S11305B00080034000C004403C10000000A0034041
S11305C000900340FFFF0000000064E00080004052
S11305D02806000006F0FF1F0010024000F0FF1F75
S11305E004F0FF1F00E100E00411000008F0FF1F09
S11305F00122014B1A70704708F0FF1F84218022EA
S1130600064B490052045A50054A10688022520091
S11306109850044A128852005A5070470080004093
S113062000F0FF1F04F0FF1F00F010001010000086
S113063000F010001010000000F010001010000076
S113064000F010001010000000F010001010000066
S113065000F010001010000000F010001010000056
S10B066000F010001010FFFF70
S9030131CA
